{
  "_format": "hh-sol-artifact-1",
  "contractName": "MetaAuth",
  "sourceName": "contracts/MetaAuth.sol",
  "abi": [
    {
      "inputs": [],
      "stateMutability": "nonpayable",
      "type": "constructor"
    },
    {
      "anonymous": false,
      "inputs": [
        {
          "indexed": true,
          "internalType": "address",
          "name": "owner",
          "type": "address"
        },
        {
          "indexed": true,
          "internalType": "address",
          "name": "approved",
          "type": "address"
        },
        {
          "indexed": true,
          "internalType": "uint256",
          "name": "tokenId",
          "type": "uint256"
        }
      ],
      "name": "Approval",
      "type": "event"
    },
    {
      "anonymous": false,
      "inputs": [
        {
          "indexed": true,
          "internalType": "address",
          "name": "owner",
          "type": "address"
        },
        {
          "indexed": true,
          "internalType": "address",
          "name": "operator",
          "type": "address"
        },
        {
          "indexed": false,
          "internalType": "bool",
          "name": "approved",
          "type": "bool"
        }
      ],
      "name": "ApprovalForAll",
      "type": "event"
    },
    {
      "anonymous": false,
      "inputs": [
        {
          "indexed": true,
          "internalType": "address",
          "name": "previousOwner",
          "type": "address"
        },
        {
          "indexed": true,
          "internalType": "address",
          "name": "newOwner",
          "type": "address"
        }
      ],
      "name": "OwnershipTransferred",
      "type": "event"
    },
    {
      "anonymous": false,
      "inputs": [
        {
          "indexed": false,
          "internalType": "address",
          "name": "account",
          "type": "address"
        }
      ],
      "name": "Paused",
      "type": "event"
    },
    {
      "anonymous": false,
      "inputs": [
        {
          "indexed": true,
          "internalType": "address",
          "name": "from",
          "type": "address"
        },
        {
          "indexed": true,
          "internalType": "address",
          "name": "to",
          "type": "address"
        },
        {
          "indexed": true,
          "internalType": "uint256",
          "name": "tokenId",
          "type": "uint256"
        }
      ],
      "name": "Transfer",
      "type": "event"
    },
    {
      "anonymous": false,
      "inputs": [
        {
          "indexed": false,
          "internalType": "address",
          "name": "account",
          "type": "address"
        }
      ],
      "name": "Unpaused",
      "type": "event"
    },
    {
      "inputs": [
        {
          "internalType": "address",
          "name": "to",
          "type": "address"
        },
        {
          "internalType": "uint256",
          "name": "tokenId",
          "type": "uint256"
        }
      ],
      "name": "approve",
      "outputs": [],
      "stateMutability": "nonpayable",
      "type": "function"
    },
    {
      "inputs": [
        {
          "internalType": "address",
          "name": "owner",
          "type": "address"
        }
      ],
      "name": "balanceOf",
      "outputs": [
        {
          "internalType": "uint256",
          "name": "",
          "type": "uint256"
        }
      ],
      "stateMutability": "view",
      "type": "function"
    },
    {
      "inputs": [
        {
          "internalType": "uint256",
          "name": "tokenId",
          "type": "uint256"
        }
      ],
      "name": "burn",
      "outputs": [],
      "stateMutability": "nonpayable",
      "type": "function"
    },
    {
      "inputs": [
        {
          "internalType": "uint256",
          "name": "tokenId",
          "type": "uint256"
        }
      ],
      "name": "getApproved",
      "outputs": [
        {
          "internalType": "address",
          "name": "",
          "type": "address"
        }
      ],
      "stateMutability": "view",
      "type": "function"
    },
    {
      "inputs": [
        {
          "internalType": "address",
          "name": "owner",
          "type": "address"
        },
        {
          "internalType": "address",
          "name": "operator",
          "type": "address"
        }
      ],
      "name": "isApprovedForAll",
      "outputs": [
        {
          "internalType": "bool",
          "name": "",
          "type": "bool"
        }
      ],
      "stateMutability": "view",
      "type": "function"
    },
    {
      "inputs": [],
      "name": "name",
      "outputs": [
        {
          "internalType": "string",
          "name": "",
          "type": "string"
        }
      ],
      "stateMutability": "view",
      "type": "function"
    },
    {
      "inputs": [],
      "name": "owner",
      "outputs": [
        {
          "internalType": "address",
          "name": "",
          "type": "address"
        }
      ],
      "stateMutability": "view",
      "type": "function"
    },
    {
      "inputs": [
        {
          "internalType": "uint256",
          "name": "tokenId",
          "type": "uint256"
        }
      ],
      "name": "ownerOf",
      "outputs": [
        {
          "internalType": "address",
          "name": "",
          "type": "address"
        }
      ],
      "stateMutability": "view",
      "type": "function"
    },
    {
      "inputs": [],
      "name": "pause",
      "outputs": [],
      "stateMutability": "nonpayable",
      "type": "function"
    },
    {
      "inputs": [],
      "name": "paused",
      "outputs": [
        {
          "internalType": "bool",
          "name": "",
          "type": "bool"
        }
      ],
      "stateMutability": "view",
      "type": "function"
    },
    {
      "inputs": [],
      "name": "renounceOwnership",
      "outputs": [],
      "stateMutability": "nonpayable",
      "type": "function"
    },
    {
      "inputs": [
        {
          "internalType": "address",
          "name": "to",
          "type": "address"
        },
        {
          "internalType": "string",
          "name": "uri",
          "type": "string"
        }
      ],
      "name": "safeMint",
      "outputs": [],
      "stateMutability": "nonpayable",
      "type": "function"
    },
    {
      "inputs": [
        {
          "internalType": "address",
          "name": "from",
          "type": "address"
        },
        {
          "internalType": "address",
          "name": "to",
          "type": "address"
        },
        {
          "internalType": "uint256",
          "name": "tokenId",
          "type": "uint256"
        }
      ],
      "name": "safeTransferFrom",
      "outputs": [],
      "stateMutability": "nonpayable",
      "type": "function"
    },
    {
      "inputs": [
        {
          "internalType": "address",
          "name": "from",
          "type": "address"
        },
        {
          "internalType": "address",
          "name": "to",
          "type": "address"
        },
        {
          "internalType": "uint256",
          "name": "tokenId",
          "type": "uint256"
        },
        {
          "internalType": "bytes",
          "name": "_data",
          "type": "bytes"
        }
      ],
      "name": "safeTransferFrom",
      "outputs": [],
      "stateMutability": "nonpayable",
      "type": "function"
    },
    {
      "inputs": [
        {
          "internalType": "address",
          "name": "operator",
          "type": "address"
        },
        {
          "internalType": "bool",
          "name": "approved",
          "type": "bool"
        }
      ],
      "name": "setApprovalForAll",
      "outputs": [],
      "stateMutability": "nonpayable",
      "type": "function"
    },
    {
      "inputs": [
        {
          "internalType": "bytes4",
          "name": "interfaceId",
          "type": "bytes4"
        }
      ],
      "name": "supportsInterface",
      "outputs": [
        {
          "internalType": "bool",
          "name": "",
          "type": "bool"
        }
      ],
      "stateMutability": "view",
      "type": "function"
    },
    {
      "inputs": [],
      "name": "symbol",
      "outputs": [
        {
          "internalType": "string",
          "name": "",
          "type": "string"
        }
      ],
      "stateMutability": "view",
      "type": "function"
    },
    {
      "inputs": [
        {
          "internalType": "uint256",
          "name": "tokenId",
          "type": "uint256"
        }
      ],
      "name": "tokenURI",
      "outputs": [
        {
          "internalType": "string",
          "name": "",
          "type": "string"
        }
      ],
      "stateMutability": "view",
      "type": "function"
    },
    {
      "inputs": [
        {
          "internalType": "address",
          "name": "from",
          "type": "address"
        },
        {
          "internalType": "address",
          "name": "to",
          "type": "address"
        },
        {
          "internalType": "uint256",
          "name": "tokenId",
          "type": "uint256"
        }
      ],
      "name": "transferFrom",
      "outputs": [],
      "stateMutability": "nonpayable",
      "type": "function"
    },
    {
      "inputs": [
        {
          "internalType": "address",
          "name": "newOwner",
          "type": "address"
        }
      ],
      "name": "transferOwnership",
      "outputs": [],
      "stateMutability": "nonpayable",
      "type": "function"
    },
    {
      "inputs": [],
      "name": "unpause",
      "outputs": [],
      "stateMutability": "nonpayable",
      "type": "function"
    },
    {
      "inputs": [
        {
          "internalType": "uint256",
          "name": "tokenId",
          "type": "uint256"
        },
        {
          "internalType": "string",
          "name": "uri",
          "type": "string"
        }
      ],
      "name": "updateTokenURI",
      "outputs": [],
      "stateMutability": "nonpayable",
      "type": "function"
    }
  ],
  "bytecode": "0x60806040523480156200001157600080fd5b506040518060400160405280600881526020017f4d657461417574680000000000000000000000000000000000000000000000008152506040518060400160405280600381526020017f4d54410000000000000000000000000000000000000000000000000000000000815250816000908051906020019062000096929190620001c1565b508060019080519060200190620000af929190620001c1565b5050506000600760006101000a81548160ff021916908315150217905550620000ed620000e1620000f360201b60201c565b620000fb60201b60201c565b620002d6565b600033905090565b6000600760019054906101000a900473ffffffffffffffffffffffffffffffffffffffff16905081600760016101000a81548173ffffffffffffffffffffffffffffffffffffffff021916908373ffffffffffffffffffffffffffffffffffffffff1602179055508173ffffffffffffffffffffffffffffffffffffffff168173ffffffffffffffffffffffffffffffffffffffff167f8be0079c531659141344cd1fd0a4f28419497f9722a3daafe3b4186f6b6457e060405160405180910390a35050565b828054620001cf9062000271565b90600052602060002090601f016020900481019282620001f357600085556200023f565b82601f106200020e57805160ff19168380011785556200023f565b828001600101855582156200023f579182015b828111156200023e57825182559160200191906001019062000221565b5b5090506200024e919062000252565b5090565b5b808211156200026d57600081600090555060010162000253565b5090565b600060028204905060018216806200028a57607f821691505b60208210811415620002a157620002a0620002a7565b5b50919050565b7f4e487b7100000000000000000000000000000000000000000000000000000000600052602260045260246000fd5b61372280620002e66000396000f3fe608060405234801561001057600080fd5b50600436106101425760003560e01c806370a08231116100b8578063a22cb4651161007c578063a22cb46514610329578063b88d4fde14610345578063c87b56dd14610361578063d204c45e14610391578063e985e9c5146103ad578063f2fde38b146103dd57610142565b806370a08231146102a9578063715018a6146102d95780638456cb59146102e35780638da5cb5b146102ed57806395d89b411461030b57610142565b806323b872dd1161010a57806323b872dd146101fd5780633f4ba83a1461021957806342842e0e1461022357806342966c681461023f5780635c975abb1461025b5780636352211e1461027957610142565b806301ffc9a71461014757806306fdde0314610177578063081812fc14610195578063095ea7b3146101c557806318e97fd1146101e1575b600080fd5b610161600480360381019061015c9190612513565b6103f9565b60405161016e9190612a1c565b60405180910390f35b61017f6104db565b60405161018c9190612a37565b60405180910390f35b6101af60048036038101906101aa9190612565565b61056d565b6040516101bc91906129b5565b60405180910390f35b6101df60048036038101906101da91906124d7565b6105f2565b005b6101fb60048036038101906101f6919061258e565b61070a565b005b6102176004803603810190610212919061237d565b610718565b005b610221610778565b005b61023d6004803603810190610238919061237d565b6107fe565b005b61025960048036038101906102549190612565565b61081e565b005b61026361087a565b6040516102709190612a1c565b60405180910390f35b610293600480360381019061028e9190612565565b610891565b6040516102a091906129b5565b60405180910390f35b6102c360048036038101906102be9190612318565b610943565b6040516102d09190612cf9565b60405180910390f35b6102e16109fb565b005b6102eb610a83565b005b6102f5610b09565b60405161030291906129b5565b60405180910390f35b610313610b33565b6040516103209190612a37565b60405180910390f35b610343600480360381019061033e9190612447565b610bc5565b005b61035f600480360381019061035a91906123cc565b610bdb565b005b61037b60048036038101906103769190612565565b610c3d565b6040516103889190612a37565b60405180910390f35b6103ab60048036038101906103a69190612483565b610c4f565b005b6103c760048036038101906103c29190612341565b610c80565b6040516103d49190612a1c565b60405180910390f35b6103f760048036038101906103f29190612318565b610d14565b005b60007f80ac58cd000000000000000000000000000000000000000000000000000000007bffffffffffffffffffffffffffffffffffffffffffffffffffffffff1916827bffffffffffffffffffffffffffffffffffffffffffffffffffffffff191614806104c457507f5b5e139f000000000000000000000000000000000000000000000000000000007bffffffffffffffffffffffffffffffffffffffffffffffffffffffff1916827bffffffffffffffffffffffffffffffffffffffffffffffffffffffff1916145b806104d457506104d382610e0c565b5b9050919050565b6060600080546104ea90612f4f565b80601f016020809104026020016040519081016040528092919081815260200182805461051690612f4f565b80156105635780601f1061053857610100808354040283529160200191610563565b820191906000526020600020905b81548152906001019060200180831161054657829003601f168201915b5050505050905090565b600061057882610e76565b6105b7576040517f08c379a00000000000000000000000000000000000000000000000000000000081526004016105ae90612c39565b60405180910390fd5b6004600083815260200190815260200160002060009054906101000a900473ffffffffffffffffffffffffffffffffffffffff169050919050565b60006105fd82610891565b90508073ffffffffffffffffffffffffffffffffffffffff168373ffffffffffffffffffffffffffffffffffffffff16141561066e576040517f08c379a000000000000000000000000000000000000000000000000000000000815260040161066590612c99565b60405180910390fd5b8073ffffffffffffffffffffffffffffffffffffffff1661068d610ee2565b73ffffffffffffffffffffffffffffffffffffffff1614806106bc57506106bb816106b6610ee2565b610c80565b5b6106fb576040517f08c379a00000000000000000000000000000000000000000000000000000000081526004016106f290612b79565b60405180910390fd5b6107058383610eea565b505050565b6107148282610fa3565b5050565b610729610723610ee2565b82611017565b610768576040517f08c379a000000000000000000000000000000000000000000000000000000000815260040161075f90612cb9565b60405180910390fd5b6107738383836110f5565b505050565b610780610ee2565b73ffffffffffffffffffffffffffffffffffffffff1661079e610b09565b73ffffffffffffffffffffffffffffffffffffffff16146107f4576040517f08c379a00000000000000000000000000000000000000000000000000000000081526004016107eb90612c59565b60405180910390fd5b6107fc61135c565b565b61081983838360405180602001604052806000815250610bdb565b505050565b61082f610829610ee2565b82611017565b61086e576040517f08c379a000000000000000000000000000000000000000000000000000000000815260040161086590612cd9565b60405180910390fd5b610877816113fe565b50565b6000600760009054906101000a900460ff16905090565b6000806002600084815260200190815260200160002060009054906101000a900473ffffffffffffffffffffffffffffffffffffffff169050600073ffffffffffffffffffffffffffffffffffffffff168173ffffffffffffffffffffffffffffffffffffffff16141561093a576040517f08c379a000000000000000000000000000000000000000000000000000000000815260040161093190612bb9565b60405180910390fd5b80915050919050565b60008073ffffffffffffffffffffffffffffffffffffffff168273ffffffffffffffffffffffffffffffffffffffff1614156109b4576040517f08c379a00000000000000000000000000000000000000000000000000000000081526004016109ab90612b99565b60405180910390fd5b600360008373ffffffffffffffffffffffffffffffffffffffff1673ffffffffffffffffffffffffffffffffffffffff168152602001908152602001600020549050919050565b610a03610ee2565b73ffffffffffffffffffffffffffffffffffffffff16610a21610b09565b73ffffffffffffffffffffffffffffffffffffffff1614610a77576040517f08c379a0000000000000000000000000000000000000000000000000000000008152600401610a6e90612c59565b60405180910390fd5b610a81600061140a565b565b610a8b610ee2565b73ffffffffffffffffffffffffffffffffffffffff16610aa9610b09565b73ffffffffffffffffffffffffffffffffffffffff1614610aff576040517f08c379a0000000000000000000000000000000000000000000000000000000008152600401610af690612c59565b60405180910390fd5b610b076114d0565b565b6000600760019054906101000a900473ffffffffffffffffffffffffffffffffffffffff16905090565b606060018054610b4290612f4f565b80601f0160208091040260200160405190810160405280929190818152602001828054610b6e90612f4f565b8015610bbb5780601f10610b9057610100808354040283529160200191610bbb565b820191906000526020600020905b815481529060010190602001808311610b9e57829003601f168201915b5050505050905090565b610bd7610bd0610ee2565b8383611573565b5050565b610bec610be6610ee2565b83611017565b610c2b576040517f08c379a0000000000000000000000000000000000000000000000000000000008152600401610c2290612cb9565b60405180910390fd5b610c37848484846116e0565b50505050565b6060610c488261173c565b9050919050565b6000610c5b600861188e565b9050610c67600861189c565b610c7183826118b2565b610c7b8183610fa3565b505050565b6000600560008473ffffffffffffffffffffffffffffffffffffffff1673ffffffffffffffffffffffffffffffffffffffff16815260200190815260200160002060008373ffffffffffffffffffffffffffffffffffffffff1673ffffffffffffffffffffffffffffffffffffffff16815260200190815260200160002060009054906101000a900460ff16905092915050565b610d1c610ee2565b73ffffffffffffffffffffffffffffffffffffffff16610d3a610b09565b73ffffffffffffffffffffffffffffffffffffffff1614610d90576040517f08c379a0000000000000000000000000000000000000000000000000000000008152600401610d8790612c59565b60405180910390fd5b600073ffffffffffffffffffffffffffffffffffffffff168173ffffffffffffffffffffffffffffffffffffffff161415610e00576040517f08c379a0000000000000000000000000000000000000000000000000000000008152600401610df790612a99565b60405180910390fd5b610e098161140a565b50565b60007f01ffc9a7000000000000000000000000000000000000000000000000000000007bffffffffffffffffffffffffffffffffffffffffffffffffffffffff1916827bffffffffffffffffffffffffffffffffffffffffffffffffffffffff1916149050919050565b60008073ffffffffffffffffffffffffffffffffffffffff166002600084815260200190815260200160002060009054906101000a900473ffffffffffffffffffffffffffffffffffffffff1673ffffffffffffffffffffffffffffffffffffffff1614159050919050565b600033905090565b816004600083815260200190815260200160002060006101000a81548173ffffffffffffffffffffffffffffffffffffffff021916908373ffffffffffffffffffffffffffffffffffffffff160217905550808273ffffffffffffffffffffffffffffffffffffffff16610f5d83610891565b73ffffffffffffffffffffffffffffffffffffffff167f8c5be1e5ebec7d5bd14f71427d1e84f3dd0314c0f7b2291e5b200ac8c7c3b92560405160405180910390a45050565b610fac82610e76565b610feb576040517f08c379a0000000000000000000000000000000000000000000000000000000008152600401610fe290612bd9565b60405180910390fd5b806006600084815260200190815260200160002090805190602001906110129291906120fc565b505050565b600061102282610e76565b611061576040517f08c379a000000000000000000000000000000000000000000000000000000000815260040161105890612b39565b60405180910390fd5b600061106c83610891565b90508073ffffffffffffffffffffffffffffffffffffffff168473ffffffffffffffffffffffffffffffffffffffff1614806110db57508373ffffffffffffffffffffffffffffffffffffffff166110c38461056d565b73ffffffffffffffffffffffffffffffffffffffff16145b806110ec57506110eb8185610c80565b5b91505092915050565b8273ffffffffffffffffffffffffffffffffffffffff1661111582610891565b73ffffffffffffffffffffffffffffffffffffffff161461116b576040517f08c379a000000000000000000000000000000000000000000000000000000000815260040161116290612ab9565b60405180910390fd5b600073ffffffffffffffffffffffffffffffffffffffff168273ffffffffffffffffffffffffffffffffffffffff1614156111db576040517f08c379a00000000000000000000000000000000000000000000000000000000081526004016111d290612af9565b60405180910390fd5b6111e68383836118d0565b6111f1600082610eea565b6001600360008573ffffffffffffffffffffffffffffffffffffffff1673ffffffffffffffffffffffffffffffffffffffff16815260200190815260200160002060008282546112419190612e65565b925050819055506001600360008473ffffffffffffffffffffffffffffffffffffffff1673ffffffffffffffffffffffffffffffffffffffff16815260200190815260200160002060008282546112989190612dde565b92505081905550816002600083815260200190815260200160002060006101000a81548173ffffffffffffffffffffffffffffffffffffffff021916908373ffffffffffffffffffffffffffffffffffffffff160217905550808273ffffffffffffffffffffffffffffffffffffffff168473ffffffffffffffffffffffffffffffffffffffff167fddf252ad1be2c89b69c2b068fc378daa952ba7f163c4a11628f55a4df523b3ef60405160405180910390a4611357838383611928565b505050565b61136461087a565b6113a3576040517f08c379a000000000000000000000000000000000000000000000000000000000815260040161139a90612a59565b60405180910390fd5b6000600760006101000a81548160ff0219169083151502179055507f5db9ee0a495bf2e6ff9c91a7834c1ba4fdd244a5e8aa4e537bd38aeae4b073aa6113e7610ee2565b6040516113f491906129b5565b60405180910390a1565b6114078161192d565b50565b6000600760019054906101000a900473ffffffffffffffffffffffffffffffffffffffff16905081600760016101000a81548173ffffffffffffffffffffffffffffffffffffffff021916908373ffffffffffffffffffffffffffffffffffffffff1602179055508173ffffffffffffffffffffffffffffffffffffffff168173ffffffffffffffffffffffffffffffffffffffff167f8be0079c531659141344cd1fd0a4f28419497f9722a3daafe3b4186f6b6457e060405160405180910390a35050565b6114d861087a565b15611518576040517f08c379a000000000000000000000000000000000000000000000000000000000815260040161150f90612b59565b60405180910390fd5b6001600760006101000a81548160ff0219169083151502179055507f62e78cea01bee320cd4e420270b5ea74000d11b0c9f74754ebdbfc544b05a25861155c610ee2565b60405161156991906129b5565b60405180910390a1565b8173ffffffffffffffffffffffffffffffffffffffff168373ffffffffffffffffffffffffffffffffffffffff1614156115e2576040517f08c379a00000000000000000000000000000000000000000000000000000000081526004016115d990612b19565b60405180910390fd5b80600560008573ffffffffffffffffffffffffffffffffffffffff1673ffffffffffffffffffffffffffffffffffffffff16815260200190815260200160002060008473ffffffffffffffffffffffffffffffffffffffff1673ffffffffffffffffffffffffffffffffffffffff16815260200190815260200160002060006101000a81548160ff0219169083151502179055508173ffffffffffffffffffffffffffffffffffffffff168373ffffffffffffffffffffffffffffffffffffffff167f17307eab39ab6107e8899845ad3d59bd9653f200f220920489ca2b5937696c31836040516116d39190612a1c565b60405180910390a3505050565b6116eb8484846110f5565b6116f784848484611980565b611736576040517f08c379a000000000000000000000000000000000000000000000000000000000815260040161172d90612a79565b60405180910390fd5b50505050565b606061174782610e76565b611786576040517f08c379a000000000000000000000000000000000000000000000000000000000815260040161177d90612c19565b60405180910390fd5b60006006600084815260200190815260200160002080546117a690612f4f565b80601f01602080910402602001604051908101604052809291908181526020018280546117d290612f4f565b801561181f5780601f106117f45761010080835404028352916020019161181f565b820191906000526020600020905b81548152906001019060200180831161180257829003601f168201915b505050505090506000611830611b17565b9050600081511415611846578192505050611889565b60008251111561187b578082604051602001611863929190612991565b60405160208183030381529060405292505050611889565b61188484611b2e565b925050505b919050565b600081600001549050919050565b6001816000016000828254019250508190555050565b6118cc828260405180602001604052806000815250611bd5565b5050565b6118d861087a565b15611918576040517f08c379a000000000000000000000000000000000000000000000000000000000815260040161190f90612b59565b60405180910390fd5b611923838383611c30565b505050565b505050565b61193681611c35565b600060066000838152602001908152602001600020805461195690612f4f565b90501461197d5760066000828152602001908152602001600020600061197c9190612182565b5b50565b60006119a18473ffffffffffffffffffffffffffffffffffffffff16611d52565b15611b0a578373ffffffffffffffffffffffffffffffffffffffff1663150b7a026119ca610ee2565b8786866040518563ffffffff1660e01b81526004016119ec94939291906129d0565b602060405180830381600087803b158015611a0657600080fd5b505af1925050508015611a3757506040513d601f19601f82011682018060405250810190611a34919061253c565b60015b611aba573d8060008114611a67576040519150601f19603f3d011682016040523d82523d6000602084013e611a6c565b606091505b50600081511415611ab2576040517f08c379a0000000000000000000000000000000000000000000000000000000008152600401611aa990612a79565b60405180910390fd5b805181602001fd5b63150b7a0260e01b7bffffffffffffffffffffffffffffffffffffffffffffffffffffffff1916817bffffffffffffffffffffffffffffffffffffffffffffffffffffffff191614915050611b0f565b600190505b949350505050565b606060405180602001604052806000815250905090565b6060611b3982610e76565b611b78576040517f08c379a0000000000000000000000000000000000000000000000000000000008152600401611b6f90612c79565b60405180910390fd5b6000611b82611b17565b90506000815111611ba25760405180602001604052806000815250611bcd565b80611bac84611d75565b604051602001611bbd929190612991565b6040516020818303038152906040525b915050919050565b611bdf8383611f22565b611bec6000848484611980565b611c2b576040517f08c379a0000000000000000000000000000000000000000000000000000000008152600401611c2290612a79565b60405180910390fd5b505050565b505050565b6000611c4082610891565b9050611c4e816000846118d0565b611c59600083610eea565b6001600360008373ffffffffffffffffffffffffffffffffffffffff1673ffffffffffffffffffffffffffffffffffffffff1681526020019081526020016000206000828254611ca99190612e65565b925050819055506002600083815260200190815260200160002060006101000a81549073ffffffffffffffffffffffffffffffffffffffff021916905581600073ffffffffffffffffffffffffffffffffffffffff168273ffffffffffffffffffffffffffffffffffffffff167fddf252ad1be2c89b69c2b068fc378daa952ba7f163c4a11628f55a4df523b3ef60405160405180910390a4611d4e81600084611928565b5050565b6000808273ffffffffffffffffffffffffffffffffffffffff163b119050919050565b60606000821415611dbd576040518060400160405280600181526020017f30000000000000000000000000000000000000000000000000000000000000008152509050611f1d565b600082905060005b60008214611def578080611dd890612fb2565b915050600a82611de89190612e34565b9150611dc5565b60008167ffffffffffffffff811115611e31577f4e487b7100000000000000000000000000000000000000000000000000000000600052604160045260246000fd5b6040519080825280601f01601f191660200182016040528015611e635781602001600182028036833780820191505090505b5090505b60008514611f1657600182611e7c9190612e65565b9150600a85611e8b9190612ffb565b6030611e979190612dde565b60f81b818381518110611ed3577f4e487b7100000000000000000000000000000000000000000000000000000000600052603260045260246000fd5b60200101907effffffffffffffffffffffffffffffffffffffffffffffffffffffffffffff1916908160001a905350600a85611f0f9190612e34565b9450611e67565b8093505050505b919050565b600073ffffffffffffffffffffffffffffffffffffffff168273ffffffffffffffffffffffffffffffffffffffff161415611f92576040517f08c379a0000000000000000000000000000000000000000000000000000000008152600401611f8990612bf9565b60405180910390fd5b611f9b81610e76565b15611fdb576040517f08c379a0000000000000000000000000000000000000000000000000000000008152600401611fd290612ad9565b60405180910390fd5b611fe7600083836118d0565b6001600360008473ffffffffffffffffffffffffffffffffffffffff1673ffffffffffffffffffffffffffffffffffffffff16815260200190815260200160002060008282546120379190612dde565b92505081905550816002600083815260200190815260200160002060006101000a81548173ffffffffffffffffffffffffffffffffffffffff021916908373ffffffffffffffffffffffffffffffffffffffff160217905550808273ffffffffffffffffffffffffffffffffffffffff16600073ffffffffffffffffffffffffffffffffffffffff167fddf252ad1be2c89b69c2b068fc378daa952ba7f163c4a11628f55a4df523b3ef60405160405180910390a46120f860008383611928565b5050565b82805461210890612f4f565b90600052602060002090601f01602090048101928261212a5760008555612171565b82601f1061214357805160ff1916838001178555612171565b82800160010185558215612171579182015b82811115612170578251825591602001919060010190612155565b5b50905061217e91906121c2565b5090565b50805461218e90612f4f565b6000825580601f106121a057506121bf565b601f0160209004906000526020600020908101906121be91906121c2565b5b50565b5b808211156121db5760008160009055506001016121c3565b5090565b60006121f26121ed84612d39565b612d14565b90508281526020810184848401111561220a57600080fd5b612215848285612f0d565b509392505050565b600061223061222b84612d6a565b612d14565b90508281526020810184848401111561224857600080fd5b612253848285612f0d565b509392505050565b60008135905061226a81613690565b92915050565b60008135905061227f816136a7565b92915050565b600081359050612294816136be565b92915050565b6000815190506122a9816136be565b92915050565b600082601f8301126122c057600080fd5b81356122d08482602086016121df565b91505092915050565b600082601f8301126122ea57600080fd5b81356122fa84826020860161221d565b91505092915050565b600081359050612312816136d5565b92915050565b60006020828403121561232a57600080fd5b60006123388482850161225b565b91505092915050565b6000806040838503121561235457600080fd5b60006123628582860161225b565b92505060206123738582860161225b565b9150509250929050565b60008060006060848603121561239257600080fd5b60006123a08682870161225b565b93505060206123b18682870161225b565b92505060406123c286828701612303565b9150509250925092565b600080600080608085870312156123e257600080fd5b60006123f08782880161225b565b94505060206124018782880161225b565b935050604061241287828801612303565b925050606085013567ffffffffffffffff81111561242f57600080fd5b61243b878288016122af565b91505092959194509250565b6000806040838503121561245a57600080fd5b60006124688582860161225b565b925050602061247985828601612270565b9150509250929050565b6000806040838503121561249657600080fd5b60006124a48582860161225b565b925050602083013567ffffffffffffffff8111156124c157600080fd5b6124cd858286016122d9565b9150509250929050565b600080604083850312156124ea57600080fd5b60006124f88582860161225b565b925050602061250985828601612303565b9150509250929050565b60006020828403121561252557600080fd5b600061253384828501612285565b91505092915050565b60006020828403121561254e57600080fd5b600061255c8482850161229a565b91505092915050565b60006020828403121561257757600080fd5b600061258584828501612303565b91505092915050565b600080604083850312156125a157600080fd5b60006125af85828601612303565b925050602083013567ffffffffffffffff8111156125cc57600080fd5b6125d8858286016122d9565b9150509250929050565b6125eb81612e99565b82525050565b6125fa81612eab565b82525050565b600061260b82612d9b565b6126158185612db1565b9350612625818560208601612f1c565b61262e816130e8565b840191505092915050565b600061264482612da6565b61264e8185612dc2565b935061265e818560208601612f1c565b612667816130e8565b840191505092915050565b600061267d82612da6565b6126878185612dd3565b9350612697818560208601612f1c565b80840191505092915050565b60006126b0601483612dc2565b91506126bb826130f9565b602082019050919050565b60006126d3603283612dc2565b91506126de82613122565b604082019050919050565b60006126f6602683612dc2565b915061270182613171565b604082019050919050565b6000612719602583612dc2565b9150612724826131c0565b604082019050919050565b600061273c601c83612dc2565b91506127478261320f565b602082019050919050565b600061275f602483612dc2565b915061276a82613238565b604082019050919050565b6000612782601983612dc2565b915061278d82613287565b602082019050919050565b60006127a5602c83612dc2565b91506127b0826132b0565b604082019050919050565b60006127c8601083612dc2565b91506127d3826132ff565b602082019050919050565b60006127eb603883612dc2565b91506127f682613328565b604082019050919050565b600061280e602a83612dc2565b915061281982613377565b604082019050919050565b6000612831602983612dc2565b915061283c826133c6565b604082019050919050565b6000612854602e83612dc2565b915061285f82613415565b604082019050919050565b6000612877602083612dc2565b915061288282613464565b602082019050919050565b600061289a603183612dc2565b91506128a58261348d565b604082019050919050565b60006128bd602c83612dc2565b91506128c8826134dc565b604082019050919050565b60006128e0602083612dc2565b91506128eb8261352b565b602082019050919050565b6000612903602f83612dc2565b915061290e82613554565b604082019050919050565b6000612926602183612dc2565b9150612931826135a3565b604082019050919050565b6000612949603183612dc2565b9150612954826135f2565b604082019050919050565b600061296c603083612dc2565b915061297782613641565b604082019050919050565b61298b81612f03565b82525050565b600061299d8285612672565b91506129a98284612672565b91508190509392505050565b60006020820190506129ca60008301846125e2565b92915050565b60006080820190506129e560008301876125e2565b6129f260208301866125e2565b6129ff6040830185612982565b8181036060830152612a118184612600565b905095945050505050565b6000602082019050612a3160008301846125f1565b92915050565b60006020820190508181036000830152612a518184612639565b905092915050565b60006020820190508181036000830152612a72816126a3565b9050919050565b60006020820190508181036000830152612a92816126c6565b9050919050565b60006020820190508181036000830152612ab2816126e9565b9050919050565b60006020820190508181036000830152612ad28161270c565b9050919050565b60006020820190508181036000830152612af28161272f565b9050919050565b60006020820190508181036000830152612b1281612752565b9050919050565b60006020820190508181036000830152612b3281612775565b9050919050565b60006020820190508181036000830152612b5281612798565b9050919050565b60006020820190508181036000830152612b72816127bb565b9050919050565b60006020820190508181036000830152612b92816127de565b9050919050565b60006020820190508181036000830152612bb281612801565b9050919050565b60006020820190508181036000830152612bd281612824565b9050919050565b60006020820190508181036000830152612bf281612847565b9050919050565b60006020820190508181036000830152612c128161286a565b9050919050565b60006020820190508181036000830152612c328161288d565b9050919050565b60006020820190508181036000830152612c52816128b0565b9050919050565b60006020820190508181036000830152612c72816128d3565b9050919050565b60006020820190508181036000830152612c92816128f6565b9050919050565b60006020820190508181036000830152612cb281612919565b9050919050565b60006020820190508181036000830152612cd28161293c565b9050919050565b60006020820190508181036000830152612cf28161295f565b9050919050565b6000602082019050612d0e6000830184612982565b92915050565b6000612d1e612d2f565b9050612d2a8282612f81565b919050565b6000604051905090565b600067ffffffffffffffff821115612d5457612d536130b9565b5b612d5d826130e8565b9050602081019050919050565b600067ffffffffffffffff821115612d8557612d846130b9565b5b612d8e826130e8565b9050602081019050919050565b600081519050919050565b600081519050919050565b600082825260208201905092915050565b600082825260208201905092915050565b600081905092915050565b6000612de982612f03565b9150612df483612f03565b9250827fffffffffffffffffffffffffffffffffffffffffffffffffffffffffffffffff03821115612e2957612e2861302c565b5b828201905092915050565b6000612e3f82612f03565b9150612e4a83612f03565b925082612e5a57612e5961305b565b5b828204905092915050565b6000612e7082612f03565b9150612e7b83612f03565b925082821015612e8e57612e8d61302c565b5b828203905092915050565b6000612ea482612ee3565b9050919050565b60008115159050919050565b60007fffffffff0000000000000000000000000000000000000000000000000000000082169050919050565b600073ffffffffffffffffffffffffffffffffffffffff82169050919050565b6000819050919050565b82818337600083830152505050565b60005b83811015612f3a578082015181840152602081019050612f1f565b83811115612f49576000848401525b50505050565b60006002820490506001821680612f6757607f821691505b60208210811415612f7b57612f7a61308a565b5b50919050565b612f8a826130e8565b810181811067ffffffffffffffff82111715612fa957612fa86130b9565b5b80604052505050565b6000612fbd82612f03565b91507fffffffffffffffffffffffffffffffffffffffffffffffffffffffffffffffff821415612ff057612fef61302c565b5b600182019050919050565b600061300682612f03565b915061301183612f03565b9250826130215761302061305b565b5b828206905092915050565b7f4e487b7100000000000000000000000000000000000000000000000000000000600052601160045260246000fd5b7f4e487b7100000000000000000000000000000000000000000000000000000000600052601260045260246000fd5b7f4e487b7100000000000000000000000000000000000000000000000000000000600052602260045260246000fd5b7f4e487b7100000000000000000000000000000000000000000000000000000000600052604160045260246000fd5b6000601f19601f8301169050919050565b7f5061757361626c653a206e6f7420706175736564000000000000000000000000600082015250565b7f4552433732313a207472616e7366657220746f206e6f6e20455243373231526560008201527f63656976657220696d706c656d656e7465720000000000000000000000000000602082015250565b7f4f776e61626c653a206e6577206f776e657220697320746865207a65726f206160008201527f6464726573730000000000000000000000000000000000000000000000000000602082015250565b7f4552433732313a207472616e736665722066726f6d20696e636f72726563742060008201527f6f776e6572000000000000000000000000000000000000000000000000000000602082015250565b7f4552433732313a20746f6b656e20616c7265616479206d696e74656400000000600082015250565b7f4552433732313a207472616e7366657220746f20746865207a65726f2061646460008201527f7265737300000000000000000000000000000000000000000000000000000000602082015250565b7f4552433732313a20617070726f766520746f2063616c6c657200000000000000600082015250565b7f4552433732313a206f70657261746f7220717565727920666f72206e6f6e657860008201527f697374656e7420746f6b656e0000000000000000000000000000000000000000602082015250565b7f5061757361626c653a2070617573656400000000000000000000000000000000600082015250565b7f4552433732313a20617070726f76652063616c6c6572206973206e6f74206f7760008201527f6e6572206e6f7220617070726f76656420666f7220616c6c0000000000000000602082015250565b7f4552433732313a2062616c616e636520717565727920666f7220746865207a6560008201527f726f206164647265737300000000000000000000000000000000000000000000602082015250565b7f4552433732313a206f776e657220717565727920666f72206e6f6e657869737460008201527f656e7420746f6b656e0000000000000000000000000000000000000000000000602082015250565b7f45524337323155524953746f726167653a2055524920736574206f66206e6f6e60008201527f6578697374656e7420746f6b656e000000000000000000000000000000000000602082015250565b7f4552433732313a206d696e7420746f20746865207a65726f2061646472657373600082015250565b7f45524337323155524953746f726167653a2055524920717565727920666f722060008201527f6e6f6e6578697374656e7420746f6b656e000000000000000000000000000000602082015250565b7f4552433732313a20617070726f76656420717565727920666f72206e6f6e657860008201527f697374656e7420746f6b656e0000000000000000000000000000000000000000602082015250565b7f4f776e61626c653a2063616c6c6572206973206e6f7420746865206f776e6572600082015250565b7f4552433732314d657461646174613a2055524920717565727920666f72206e6f60008201527f6e6578697374656e7420746f6b656e0000000000000000000000000000000000602082015250565b7f4552433732313a20617070726f76616c20746f2063757272656e74206f776e6560008201527f7200000000000000000000000000000000000000000000000000000000000000602082015250565b7f4552433732313a207472616e736665722063616c6c6572206973206e6f74206f60008201527f776e6572206e6f7220617070726f766564000000000000000000000000000000602082015250565b7f4552433732314275726e61626c653a2063616c6c6572206973206e6f74206f7760008201527f6e6572206e6f7220617070726f76656400000000000000000000000000000000602082015250565b61369981612e99565b81146136a457600080fd5b50565b6136b081612eab565b81146136bb57600080fd5b50565b6136c781612eb7565b81146136d257600080fd5b50565b6136de81612f03565b81146136e957600080fd5b5056fea2646970667358221220dc2fdab84ae26ceecb17038cbc9527cb80055bfe2288b6fcaa090cd1c797f44964736f6c63430008040033",
  "linkReferences": {},
  "deployedLinkReferences": {}
}