{
  "_format": "hh-sol-artifact-1",
  "contractName": "MetaAuth",
  "sourceName": "contracts/MetaAuth.sol",
  "abi": [
    {
      "inputs": [],
      "stateMutability": "nonpayable",
      "type": "constructor"
    },
    {
      "anonymous": false,
      "inputs": [
        {
          "indexed": true,
          "internalType": "address",
          "name": "owner",
          "type": "address"
        },
        {
          "indexed": true,
          "internalType": "address",
          "name": "approved",
          "type": "address"
        },
        {
          "indexed": true,
          "internalType": "uint256",
          "name": "tokenId",
          "type": "uint256"
        }
      ],
      "name": "Approval",
      "type": "event"
    },
    {
      "anonymous": false,
      "inputs": [
        {
          "indexed": true,
          "internalType": "address",
          "name": "owner",
          "type": "address"
        },
        {
          "indexed": true,
          "internalType": "address",
          "name": "operator",
          "type": "address"
        },
        {
          "indexed": false,
          "internalType": "bool",
          "name": "approved",
          "type": "bool"
        }
      ],
      "name": "ApprovalForAll",
      "type": "event"
    },
    {
      "anonymous": false,
      "inputs": [
        {
          "indexed": true,
          "internalType": "address",
          "name": "previousOwner",
          "type": "address"
        },
        {
          "indexed": true,
          "internalType": "address",
          "name": "newOwner",
          "type": "address"
        }
      ],
      "name": "OwnershipTransferred",
      "type": "event"
    },
    {
      "anonymous": false,
      "inputs": [
        {
          "indexed": false,
          "internalType": "address",
          "name": "account",
          "type": "address"
        }
      ],
      "name": "Paused",
      "type": "event"
    },
    {
      "anonymous": false,
      "inputs": [
        {
          "indexed": true,
          "internalType": "address",
          "name": "from",
          "type": "address"
        },
        {
          "indexed": true,
          "internalType": "address",
          "name": "to",
          "type": "address"
        },
        {
          "indexed": true,
          "internalType": "uint256",
          "name": "tokenId",
          "type": "uint256"
        }
      ],
      "name": "Transfer",
      "type": "event"
    },
    {
      "anonymous": false,
      "inputs": [
        {
          "indexed": false,
          "internalType": "address",
          "name": "account",
          "type": "address"
        }
      ],
      "name": "Unpaused",
      "type": "event"
    },
    {
      "inputs": [
        {
          "internalType": "address",
          "name": "to",
          "type": "address"
        },
        {
          "internalType": "uint256",
          "name": "tokenId",
          "type": "uint256"
        }
      ],
      "name": "approve",
      "outputs": [],
      "stateMutability": "nonpayable",
      "type": "function"
    },
    {
      "inputs": [
        {
          "internalType": "address",
          "name": "owner",
          "type": "address"
        }
      ],
      "name": "balanceOf",
      "outputs": [
        {
          "internalType": "uint256",
          "name": "",
          "type": "uint256"
        }
      ],
      "stateMutability": "view",
      "type": "function"
    },
    {
      "inputs": [
        {
          "internalType": "uint256",
          "name": "tokenId",
          "type": "uint256"
        }
      ],
      "name": "burn",
      "outputs": [],
      "stateMutability": "nonpayable",
      "type": "function"
    },
    {
      "inputs": [
        {
          "internalType": "uint256",
          "name": "tokenId",
          "type": "uint256"
        }
      ],
      "name": "getApproved",
      "outputs": [
        {
          "internalType": "address",
          "name": "",
          "type": "address"
        }
      ],
      "stateMutability": "view",
      "type": "function"
    },
    {
      "inputs": [
        {
          "internalType": "address",
          "name": "owner",
          "type": "address"
        },
        {
          "internalType": "address",
          "name": "operator",
          "type": "address"
        }
      ],
      "name": "isApprovedForAll",
      "outputs": [
        {
          "internalType": "bool",
          "name": "",
          "type": "bool"
        }
      ],
      "stateMutability": "view",
      "type": "function"
    },
    {
      "inputs": [],
      "name": "name",
      "outputs": [
        {
          "internalType": "string",
          "name": "",
          "type": "string"
        }
      ],
      "stateMutability": "view",
      "type": "function"
    },
    {
      "inputs": [],
      "name": "owner",
      "outputs": [
        {
          "internalType": "address",
          "name": "",
          "type": "address"
        }
      ],
      "stateMutability": "view",
      "type": "function"
    },
    {
      "inputs": [
        {
          "internalType": "uint256",
          "name": "tokenId",
          "type": "uint256"
        }
      ],
      "name": "ownerOf",
      "outputs": [
        {
          "internalType": "address",
          "name": "",
          "type": "address"
        }
      ],
      "stateMutability": "view",
      "type": "function"
    },
    {
      "inputs": [],
      "name": "pause",
      "outputs": [],
      "stateMutability": "nonpayable",
      "type": "function"
    },
    {
      "inputs": [],
      "name": "paused",
      "outputs": [
        {
          "internalType": "bool",
          "name": "",
          "type": "bool"
        }
      ],
      "stateMutability": "view",
      "type": "function"
    },
    {
      "inputs": [],
      "name": "renounceOwnership",
      "outputs": [],
      "stateMutability": "nonpayable",
      "type": "function"
    },
    {
      "inputs": [
        {
          "internalType": "address",
          "name": "to",
          "type": "address"
        },
        {
          "internalType": "string",
          "name": "uri",
          "type": "string"
        }
      ],
      "name": "safeMint",
      "outputs": [],
      "stateMutability": "nonpayable",
      "type": "function"
    },
    {
      "inputs": [
        {
          "internalType": "address",
          "name": "from",
          "type": "address"
        },
        {
          "internalType": "address",
          "name": "to",
          "type": "address"
        },
        {
          "internalType": "uint256",
          "name": "tokenId",
          "type": "uint256"
        }
      ],
      "name": "safeTransferFrom",
      "outputs": [],
      "stateMutability": "nonpayable",
      "type": "function"
    },
    {
      "inputs": [
        {
          "internalType": "address",
          "name": "from",
          "type": "address"
        },
        {
          "internalType": "address",
          "name": "to",
          "type": "address"
        },
        {
          "internalType": "uint256",
          "name": "tokenId",
          "type": "uint256"
        },
        {
          "internalType": "bytes",
          "name": "_data",
          "type": "bytes"
        }
      ],
      "name": "safeTransferFrom",
      "outputs": [],
      "stateMutability": "nonpayable",
      "type": "function"
    },
    {
      "inputs": [
        {
          "internalType": "address",
          "name": "operator",
          "type": "address"
        },
        {
          "internalType": "bool",
          "name": "approved",
          "type": "bool"
        }
      ],
      "name": "setApprovalForAll",
      "outputs": [],
      "stateMutability": "nonpayable",
      "type": "function"
    },
    {
      "inputs": [
        {
          "internalType": "bytes4",
          "name": "interfaceId",
          "type": "bytes4"
        }
      ],
      "name": "supportsInterface",
      "outputs": [
        {
          "internalType": "bool",
          "name": "",
          "type": "bool"
        }
      ],
      "stateMutability": "view",
      "type": "function"
    },
    {
      "inputs": [],
      "name": "symbol",
      "outputs": [
        {
          "internalType": "string",
          "name": "",
          "type": "string"
        }
      ],
      "stateMutability": "view",
      "type": "function"
    },
    {
      "inputs": [
        {
          "internalType": "uint256",
          "name": "tokenId",
          "type": "uint256"
        }
      ],
      "name": "tokenURI",
      "outputs": [
        {
          "internalType": "string",
          "name": "",
          "type": "string"
        }
      ],
      "stateMutability": "view",
      "type": "function"
    },
    {
      "inputs": [
        {
          "internalType": "address",
          "name": "from",
          "type": "address"
        },
        {
          "internalType": "address",
          "name": "to",
          "type": "address"
        },
        {
          "internalType": "uint256",
          "name": "tokenId",
          "type": "uint256"
        }
      ],
      "name": "transferFrom",
      "outputs": [],
      "stateMutability": "nonpayable",
      "type": "function"
    },
    {
      "inputs": [
        {
          "internalType": "address",
          "name": "newOwner",
          "type": "address"
        }
      ],
      "name": "transferOwnership",
      "outputs": [],
      "stateMutability": "nonpayable",
      "type": "function"
    },
    {
      "inputs": [],
      "name": "unpause",
      "outputs": [],
      "stateMutability": "nonpayable",
      "type": "function"
    }
  ],
  "bytecode": "0x60806040523480156200001157600080fd5b506040518060400160405280600881526020017f4d657461417574680000000000000000000000000000000000000000000000008152506040518060400160405280600381526020017f4d54410000000000000000000000000000000000000000000000000000000000815250816000908051906020019062000096929190620001c1565b508060019080519060200190620000af929190620001c1565b5050506000600760006101000a81548160ff021916908315150217905550620000ed620000e1620000f360201b60201c565b620000fb60201b60201c565b620002d6565b600033905090565b6000600760019054906101000a900473ffffffffffffffffffffffffffffffffffffffff16905081600760016101000a81548173ffffffffffffffffffffffffffffffffffffffff021916908373ffffffffffffffffffffffffffffffffffffffff1602179055508173ffffffffffffffffffffffffffffffffffffffff168173ffffffffffffffffffffffffffffffffffffffff167f8be0079c531659141344cd1fd0a4f28419497f9722a3daafe3b4186f6b6457e060405160405180910390a35050565b828054620001cf9062000271565b90600052602060002090601f016020900481019282620001f357600085556200023f565b82601f106200020e57805160ff19168380011785556200023f565b828001600101855582156200023f579182015b828111156200023e57825182559160200191906001019062000221565b5b5090506200024e919062000252565b5090565b5b808211156200026d57600081600090555060010162000253565b5090565b600060028204905060018216806200028a57607f821691505b60208210811415620002a157620002a0620002a7565b5b50919050565b7f4e487b7100000000000000000000000000000000000000000000000000000000600052602260045260246000fd5b61371580620002e66000396000f3fe608060405234801561001057600080fd5b50600436106101375760003560e01c806370a08231116100b8578063a22cb4651161007c578063a22cb46514610302578063b88d4fde1461031e578063c87b56dd1461033a578063d204c45e1461036a578063e985e9c514610386578063f2fde38b146103b657610137565b806370a0823114610282578063715018a6146102b25780638456cb59146102bc5780638da5cb5b146102c657806395d89b41146102e457610137565b80633f4ba83a116100ff5780633f4ba83a146101f257806342842e0e146101fc57806342966c68146102185780635c975abb146102345780636352211e1461025257610137565b806301ffc9a71461013c57806306fdde031461016c578063081812fc1461018a578063095ea7b3146101ba57806323b872dd146101d6575b600080fd5b6101566004803603810190610151919061255a565b6103d2565b6040516101639190612a0f565b60405180910390f35b6101746104b4565b6040516101819190612a2a565b60405180910390f35b6101a4600480360381019061019f91906125ac565b610546565b6040516101b191906129a8565b60405180910390f35b6101d460048036038101906101cf919061251e565b6105cb565b005b6101f060048036038101906101eb91906123c4565b6106e3565b005b6101fa610743565b005b610216600480360381019061021191906123c4565b6107c9565b005b610232600480360381019061022d91906125ac565b6107e9565b005b61023c610845565b6040516102499190612a0f565b60405180910390f35b61026c600480360381019061026791906125ac565b61085c565b60405161027991906129a8565b60405180910390f35b61029c6004803603810190610297919061235f565b61090e565b6040516102a99190612cec565b60405180910390f35b6102ba6109c6565b005b6102c4610a4e565b005b6102ce610ad4565b6040516102db91906129a8565b60405180910390f35b6102ec610afe565b6040516102f99190612a2a565b60405180910390f35b61031c6004803603810190610317919061248e565b610b90565b005b61033860048036038101906103339190612413565b610ba6565b005b610354600480360381019061034f91906125ac565b610c08565b6040516103619190612a2a565b60405180910390f35b610384600480360381019061037f91906124ca565b610c1a565b005b6103a0600480360381019061039b9190612388565b610cc7565b6040516103ad9190612a0f565b60405180910390f35b6103d060048036038101906103cb919061235f565b610d5b565b005b60007f80ac58cd000000000000000000000000000000000000000000000000000000007bffffffffffffffffffffffffffffffffffffffffffffffffffffffff1916827bffffffffffffffffffffffffffffffffffffffffffffffffffffffff1916148061049d57507f5b5e139f000000000000000000000000000000000000000000000000000000007bffffffffffffffffffffffffffffffffffffffffffffffffffffffff1916827bffffffffffffffffffffffffffffffffffffffffffffffffffffffff1916145b806104ad57506104ac82610e53565b5b9050919050565b6060600080546104c390612f42565b80601f01602080910402602001604051908101604052809291908181526020018280546104ef90612f42565b801561053c5780601f106105115761010080835404028352916020019161053c565b820191906000526020600020905b81548152906001019060200180831161051f57829003601f168201915b5050505050905090565b600061055182610ebd565b610590576040517f08c379a000000000000000000000000000000000000000000000000000000000815260040161058790612c2c565b60405180910390fd5b6004600083815260200190815260200160002060009054906101000a900473ffffffffffffffffffffffffffffffffffffffff169050919050565b60006105d68261085c565b90508073ffffffffffffffffffffffffffffffffffffffff168373ffffffffffffffffffffffffffffffffffffffff161415610647576040517f08c379a000000000000000000000000000000000000000000000000000000000815260040161063e90612c8c565b60405180910390fd5b8073ffffffffffffffffffffffffffffffffffffffff16610666610f29565b73ffffffffffffffffffffffffffffffffffffffff16148061069557506106948161068f610f29565b610cc7565b5b6106d4576040517f08c379a00000000000000000000000000000000000000000000000000000000081526004016106cb90612b6c565b60405180910390fd5b6106de8383610f31565b505050565b6106f46106ee610f29565b82610fea565b610733576040517f08c379a000000000000000000000000000000000000000000000000000000000815260040161072a90612cac565b60405180910390fd5b61073e8383836110c8565b505050565b61074b610f29565b73ffffffffffffffffffffffffffffffffffffffff16610769610ad4565b73ffffffffffffffffffffffffffffffffffffffff16146107bf576040517f08c379a00000000000000000000000000000000000000000000000000000000081526004016107b690612c4c565b60405180910390fd5b6107c761132f565b565b6107e483838360405180602001604052806000815250610ba6565b505050565b6107fa6107f4610f29565b82610fea565b610839576040517f08c379a000000000000000000000000000000000000000000000000000000000815260040161083090612ccc565b60405180910390fd5b610842816113d1565b50565b6000600760009054906101000a900460ff16905090565b6000806002600084815260200190815260200160002060009054906101000a900473ffffffffffffffffffffffffffffffffffffffff169050600073ffffffffffffffffffffffffffffffffffffffff168173ffffffffffffffffffffffffffffffffffffffff161415610905576040517f08c379a00000000000000000000000000000000000000000000000000000000081526004016108fc90612bac565b60405180910390fd5b80915050919050565b60008073ffffffffffffffffffffffffffffffffffffffff168273ffffffffffffffffffffffffffffffffffffffff16141561097f576040517f08c379a000000000000000000000000000000000000000000000000000000000815260040161097690612b8c565b60405180910390fd5b600360008373ffffffffffffffffffffffffffffffffffffffff1673ffffffffffffffffffffffffffffffffffffffff168152602001908152602001600020549050919050565b6109ce610f29565b73ffffffffffffffffffffffffffffffffffffffff166109ec610ad4565b73ffffffffffffffffffffffffffffffffffffffff1614610a42576040517f08c379a0000000000000000000000000000000000000000000000000000000008152600401610a3990612c4c565b60405180910390fd5b610a4c60006113dd565b565b610a56610f29565b73ffffffffffffffffffffffffffffffffffffffff16610a74610ad4565b73ffffffffffffffffffffffffffffffffffffffff1614610aca576040517f08c379a0000000000000000000000000000000000000000000000000000000008152600401610ac190612c4c565b60405180910390fd5b610ad26114a3565b565b6000600760019054906101000a900473ffffffffffffffffffffffffffffffffffffffff16905090565b606060018054610b0d90612f42565b80601f0160208091040260200160405190810160405280929190818152602001828054610b3990612f42565b8015610b865780601f10610b5b57610100808354040283529160200191610b86565b820191906000526020600020905b815481529060010190602001808311610b6957829003601f168201915b5050505050905090565b610ba2610b9b610f29565b8383611546565b5050565b610bb7610bb1610f29565b83610fea565b610bf6576040517f08c379a0000000000000000000000000000000000000000000000000000000008152600401610bed90612cac565b60405180910390fd5b610c02848484846116b3565b50505050565b6060610c138261170f565b9050919050565b610c22610f29565b73ffffffffffffffffffffffffffffffffffffffff16610c40610ad4565b73ffffffffffffffffffffffffffffffffffffffff1614610c96576040517f08c379a0000000000000000000000000000000000000000000000000000000008152600401610c8d90612c4c565b60405180910390fd5b6000610ca26008611861565b9050610cae600861186f565b610cb88382611885565b610cc281836118a3565b505050565b6000600560008473ffffffffffffffffffffffffffffffffffffffff1673ffffffffffffffffffffffffffffffffffffffff16815260200190815260200160002060008373ffffffffffffffffffffffffffffffffffffffff1673ffffffffffffffffffffffffffffffffffffffff16815260200190815260200160002060009054906101000a900460ff16905092915050565b610d63610f29565b73ffffffffffffffffffffffffffffffffffffffff16610d81610ad4565b73ffffffffffffffffffffffffffffffffffffffff1614610dd7576040517f08c379a0000000000000000000000000000000000000000000000000000000008152600401610dce90612c4c565b60405180910390fd5b600073ffffffffffffffffffffffffffffffffffffffff168173ffffffffffffffffffffffffffffffffffffffff161415610e47576040517f08c379a0000000000000000000000000000000000000000000000000000000008152600401610e3e90612a8c565b60405180910390fd5b610e50816113dd565b50565b60007f01ffc9a7000000000000000000000000000000000000000000000000000000007bffffffffffffffffffffffffffffffffffffffffffffffffffffffff1916827bffffffffffffffffffffffffffffffffffffffffffffffffffffffff1916149050919050565b60008073ffffffffffffffffffffffffffffffffffffffff166002600084815260200190815260200160002060009054906101000a900473ffffffffffffffffffffffffffffffffffffffff1673ffffffffffffffffffffffffffffffffffffffff1614159050919050565b600033905090565b816004600083815260200190815260200160002060006101000a81548173ffffffffffffffffffffffffffffffffffffffff021916908373ffffffffffffffffffffffffffffffffffffffff160217905550808273ffffffffffffffffffffffffffffffffffffffff16610fa48361085c565b73ffffffffffffffffffffffffffffffffffffffff167f8c5be1e5ebec7d5bd14f71427d1e84f3dd0314c0f7b2291e5b200ac8c7c3b92560405160405180910390a45050565b6000610ff582610ebd565b611034576040517f08c379a000000000000000000000000000000000000000000000000000000000815260040161102b90612b2c565b60405180910390fd5b600061103f8361085c565b90508073ffffffffffffffffffffffffffffffffffffffff168473ffffffffffffffffffffffffffffffffffffffff1614806110ae57508373ffffffffffffffffffffffffffffffffffffffff1661109684610546565b73ffffffffffffffffffffffffffffffffffffffff16145b806110bf57506110be8185610cc7565b5b91505092915050565b8273ffffffffffffffffffffffffffffffffffffffff166110e88261085c565b73ffffffffffffffffffffffffffffffffffffffff161461113e576040517f08c379a000000000000000000000000000000000000000000000000000000000815260040161113590612aac565b60405180910390fd5b600073ffffffffffffffffffffffffffffffffffffffff168273ffffffffffffffffffffffffffffffffffffffff1614156111ae576040517f08c379a00000000000000000000000000000000000000000000000000000000081526004016111a590612aec565b60405180910390fd5b6111b9838383611917565b6111c4600082610f31565b6001600360008573ffffffffffffffffffffffffffffffffffffffff1673ffffffffffffffffffffffffffffffffffffffff16815260200190815260200160002060008282546112149190612e58565b925050819055506001600360008473ffffffffffffffffffffffffffffffffffffffff1673ffffffffffffffffffffffffffffffffffffffff168152602001908152602001600020600082825461126b9190612dd1565b92505081905550816002600083815260200190815260200160002060006101000a81548173ffffffffffffffffffffffffffffffffffffffff021916908373ffffffffffffffffffffffffffffffffffffffff160217905550808273ffffffffffffffffffffffffffffffffffffffff168473ffffffffffffffffffffffffffffffffffffffff167fddf252ad1be2c89b69c2b068fc378daa952ba7f163c4a11628f55a4df523b3ef60405160405180910390a461132a83838361196f565b505050565b611337610845565b611376576040517f08c379a000000000000000000000000000000000000000000000000000000000815260040161136d90612a4c565b60405180910390fd5b6000600760006101000a81548160ff0219169083151502179055507f5db9ee0a495bf2e6ff9c91a7834c1ba4fdd244a5e8aa4e537bd38aeae4b073aa6113ba610f29565b6040516113c791906129a8565b60405180910390a1565b6113da81611974565b50565b6000600760019054906101000a900473ffffffffffffffffffffffffffffffffffffffff16905081600760016101000a81548173ffffffffffffffffffffffffffffffffffffffff021916908373ffffffffffffffffffffffffffffffffffffffff1602179055508173ffffffffffffffffffffffffffffffffffffffff168173ffffffffffffffffffffffffffffffffffffffff167f8be0079c531659141344cd1fd0a4f28419497f9722a3daafe3b4186f6b6457e060405160405180910390a35050565b6114ab610845565b156114eb576040517f08c379a00000000000000000000000000000000000000000000000000000000081526004016114e290612b4c565b60405180910390fd5b6001600760006101000a81548160ff0219169083151502179055507f62e78cea01bee320cd4e420270b5ea74000d11b0c9f74754ebdbfc544b05a25861152f610f29565b60405161153c91906129a8565b60405180910390a1565b8173ffffffffffffffffffffffffffffffffffffffff168373ffffffffffffffffffffffffffffffffffffffff1614156115b5576040517f08c379a00000000000000000000000000000000000000000000000000000000081526004016115ac90612b0c565b60405180910390fd5b80600560008573ffffffffffffffffffffffffffffffffffffffff1673ffffffffffffffffffffffffffffffffffffffff16815260200190815260200160002060008473ffffffffffffffffffffffffffffffffffffffff1673ffffffffffffffffffffffffffffffffffffffff16815260200190815260200160002060006101000a81548160ff0219169083151502179055508173ffffffffffffffffffffffffffffffffffffffff168373ffffffffffffffffffffffffffffffffffffffff167f17307eab39ab6107e8899845ad3d59bd9653f200f220920489ca2b5937696c31836040516116a69190612a0f565b60405180910390a3505050565b6116be8484846110c8565b6116ca848484846119c7565b611709576040517f08c379a000000000000000000000000000000000000000000000000000000000815260040161170090612a6c565b60405180910390fd5b50505050565b606061171a82610ebd565b611759576040517f08c379a000000000000000000000000000000000000000000000000000000000815260040161175090612c0c565b60405180910390fd5b600060066000848152602001908152602001600020805461177990612f42565b80601f01602080910402602001604051908101604052809291908181526020018280546117a590612f42565b80156117f25780601f106117c7576101008083540402835291602001916117f2565b820191906000526020600020905b8154815290600101906020018083116117d557829003601f168201915b505050505090506000611803611b5e565b905060008151141561181957819250505061185c565b60008251111561184e578082604051602001611836929190612984565b6040516020818303038152906040529250505061185c565b61185784611b75565b925050505b919050565b600081600001549050919050565b6001816000016000828254019250508190555050565b61189f828260405180602001604052806000815250611c1c565b5050565b6118ac82610ebd565b6118eb576040517f08c379a00000000000000000000000000000000000000000000000000000000081526004016118e290612bcc565b60405180910390fd5b80600660008481526020019081526020016000209080519060200190611912929190612143565b505050565b61191f610845565b1561195f576040517f08c379a000000000000000000000000000000000000000000000000000000000815260040161195690612b4c565b60405180910390fd5b61196a838383611c77565b505050565b505050565b61197d81611c7c565b600060066000838152602001908152602001600020805461199d90612f42565b9050146119c4576006600082815260200190815260200160002060006119c391906121c9565b5b50565b60006119e88473ffffffffffffffffffffffffffffffffffffffff16611d99565b15611b51578373ffffffffffffffffffffffffffffffffffffffff1663150b7a02611a11610f29565b8786866040518563ffffffff1660e01b8152600401611a3394939291906129c3565b602060405180830381600087803b158015611a4d57600080fd5b505af1925050508015611a7e57506040513d601f19601f82011682018060405250810190611a7b9190612583565b60015b611b01573d8060008114611aae576040519150601f19603f3d011682016040523d82523d6000602084013e611ab3565b606091505b50600081511415611af9576040517f08c379a0000000000000000000000000000000000000000000000000000000008152600401611af090612a6c565b60405180910390fd5b805181602001fd5b63150b7a0260e01b7bffffffffffffffffffffffffffffffffffffffffffffffffffffffff1916817bffffffffffffffffffffffffffffffffffffffffffffffffffffffff191614915050611b56565b600190505b949350505050565b606060405180602001604052806000815250905090565b6060611b8082610ebd565b611bbf576040517f08c379a0000000000000000000000000000000000000000000000000000000008152600401611bb690612c6c565b60405180910390fd5b6000611bc9611b5e565b90506000815111611be95760405180602001604052806000815250611c14565b80611bf384611dbc565b604051602001611c04929190612984565b6040516020818303038152906040525b915050919050565b611c268383611f69565b611c3360008484846119c7565b611c72576040517f08c379a0000000000000000000000000000000000000000000000000000000008152600401611c6990612a6c565b60405180910390fd5b505050565b505050565b6000611c878261085c565b9050611c9581600084611917565b611ca0600083610f31565b6001600360008373ffffffffffffffffffffffffffffffffffffffff1673ffffffffffffffffffffffffffffffffffffffff1681526020019081526020016000206000828254611cf09190612e58565b925050819055506002600083815260200190815260200160002060006101000a81549073ffffffffffffffffffffffffffffffffffffffff021916905581600073ffffffffffffffffffffffffffffffffffffffff168273ffffffffffffffffffffffffffffffffffffffff167fddf252ad1be2c89b69c2b068fc378daa952ba7f163c4a11628f55a4df523b3ef60405160405180910390a4611d958160008461196f565b5050565b6000808273ffffffffffffffffffffffffffffffffffffffff163b119050919050565b60606000821415611e04576040518060400160405280600181526020017f30000000000000000000000000000000000000000000000000000000000000008152509050611f64565b600082905060005b60008214611e36578080611e1f90612fa5565b915050600a82611e2f9190612e27565b9150611e0c565b60008167ffffffffffffffff811115611e78577f4e487b7100000000000000000000000000000000000000000000000000000000600052604160045260246000fd5b6040519080825280601f01601f191660200182016040528015611eaa5781602001600182028036833780820191505090505b5090505b60008514611f5d57600182611ec39190612e58565b9150600a85611ed29190612fee565b6030611ede9190612dd1565b60f81b818381518110611f1a577f4e487b7100000000000000000000000000000000000000000000000000000000600052603260045260246000fd5b60200101907effffffffffffffffffffffffffffffffffffffffffffffffffffffffffffff1916908160001a905350600a85611f569190612e27565b9450611eae565b8093505050505b919050565b600073ffffffffffffffffffffffffffffffffffffffff168273ffffffffffffffffffffffffffffffffffffffff161415611fd9576040517f08c379a0000000000000000000000000000000000000000000000000000000008152600401611fd090612bec565b60405180910390fd5b611fe281610ebd565b15612022576040517f08c379a000000000000000000000000000000000000000000000000000000000815260040161201990612acc565b60405180910390fd5b61202e60008383611917565b6001600360008473ffffffffffffffffffffffffffffffffffffffff1673ffffffffffffffffffffffffffffffffffffffff168152602001908152602001600020600082825461207e9190612dd1565b92505081905550816002600083815260200190815260200160002060006101000a81548173ffffffffffffffffffffffffffffffffffffffff021916908373ffffffffffffffffffffffffffffffffffffffff160217905550808273ffffffffffffffffffffffffffffffffffffffff16600073ffffffffffffffffffffffffffffffffffffffff167fddf252ad1be2c89b69c2b068fc378daa952ba7f163c4a11628f55a4df523b3ef60405160405180910390a461213f6000838361196f565b5050565b82805461214f90612f42565b90600052602060002090601f01602090048101928261217157600085556121b8565b82601f1061218a57805160ff19168380011785556121b8565b828001600101855582156121b8579182015b828111156121b757825182559160200191906001019061219c565b5b5090506121c59190612209565b5090565b5080546121d590612f42565b6000825580601f106121e75750612206565b601f0160209004906000526020600020908101906122059190612209565b5b50565b5b8082111561222257600081600090555060010161220a565b5090565b600061223961223484612d2c565b612d07565b90508281526020810184848401111561225157600080fd5b61225c848285612f00565b509392505050565b600061227761227284612d5d565b612d07565b90508281526020810184848401111561228f57600080fd5b61229a848285612f00565b509392505050565b6000813590506122b181613683565b92915050565b6000813590506122c68161369a565b92915050565b6000813590506122db816136b1565b92915050565b6000815190506122f0816136b1565b92915050565b600082601f83011261230757600080fd5b8135612317848260208601612226565b91505092915050565b600082601f83011261233157600080fd5b8135612341848260208601612264565b91505092915050565b600081359050612359816136c8565b92915050565b60006020828403121561237157600080fd5b600061237f848285016122a2565b91505092915050565b6000806040838503121561239b57600080fd5b60006123a9858286016122a2565b92505060206123ba858286016122a2565b9150509250929050565b6000806000606084860312156123d957600080fd5b60006123e7868287016122a2565b93505060206123f8868287016122a2565b92505060406124098682870161234a565b9150509250925092565b6000806000806080858703121561242957600080fd5b6000612437878288016122a2565b9450506020612448878288016122a2565b93505060406124598782880161234a565b925050606085013567ffffffffffffffff81111561247657600080fd5b612482878288016122f6565b91505092959194509250565b600080604083850312156124a157600080fd5b60006124af858286016122a2565b92505060206124c0858286016122b7565b9150509250929050565b600080604083850312156124dd57600080fd5b60006124eb858286016122a2565b925050602083013567ffffffffffffffff81111561250857600080fd5b61251485828601612320565b9150509250929050565b6000806040838503121561253157600080fd5b600061253f858286016122a2565b92505060206125508582860161234a565b9150509250929050565b60006020828403121561256c57600080fd5b600061257a848285016122cc565b91505092915050565b60006020828403121561259557600080fd5b60006125a3848285016122e1565b91505092915050565b6000602082840312156125be57600080fd5b60006125cc8482850161234a565b91505092915050565b6125de81612e8c565b82525050565b6125ed81612e9e565b82525050565b60006125fe82612d8e565b6126088185612da4565b9350612618818560208601612f0f565b612621816130db565b840191505092915050565b600061263782612d99565b6126418185612db5565b9350612651818560208601612f0f565b61265a816130db565b840191505092915050565b600061267082612d99565b61267a8185612dc6565b935061268a818560208601612f0f565b80840191505092915050565b60006126a3601483612db5565b91506126ae826130ec565b602082019050919050565b60006126c6603283612db5565b91506126d182613115565b604082019050919050565b60006126e9602683612db5565b91506126f482613164565b604082019050919050565b600061270c602583612db5565b9150612717826131b3565b604082019050919050565b600061272f601c83612db5565b915061273a82613202565b602082019050919050565b6000612752602483612db5565b915061275d8261322b565b604082019050919050565b6000612775601983612db5565b91506127808261327a565b602082019050919050565b6000612798602c83612db5565b91506127a3826132a3565b604082019050919050565b60006127bb601083612db5565b91506127c6826132f2565b602082019050919050565b60006127de603883612db5565b91506127e98261331b565b604082019050919050565b6000612801602a83612db5565b915061280c8261336a565b604082019050919050565b6000612824602983612db5565b915061282f826133b9565b604082019050919050565b6000612847602e83612db5565b915061285282613408565b604082019050919050565b600061286a602083612db5565b915061287582613457565b602082019050919050565b600061288d603183612db5565b915061289882613480565b604082019050919050565b60006128b0602c83612db5565b91506128bb826134cf565b604082019050919050565b60006128d3602083612db5565b91506128de8261351e565b602082019050919050565b60006128f6602f83612db5565b915061290182613547565b604082019050919050565b6000612919602183612db5565b915061292482613596565b604082019050919050565b600061293c603183612db5565b9150612947826135e5565b604082019050919050565b600061295f603083612db5565b915061296a82613634565b604082019050919050565b61297e81612ef6565b82525050565b60006129908285612665565b915061299c8284612665565b91508190509392505050565b60006020820190506129bd60008301846125d5565b92915050565b60006080820190506129d860008301876125d5565b6129e560208301866125d5565b6129f26040830185612975565b8181036060830152612a0481846125f3565b905095945050505050565b6000602082019050612a2460008301846125e4565b92915050565b60006020820190508181036000830152612a44818461262c565b905092915050565b60006020820190508181036000830152612a6581612696565b9050919050565b60006020820190508181036000830152612a85816126b9565b9050919050565b60006020820190508181036000830152612aa5816126dc565b9050919050565b60006020820190508181036000830152612ac5816126ff565b9050919050565b60006020820190508181036000830152612ae581612722565b9050919050565b60006020820190508181036000830152612b0581612745565b9050919050565b60006020820190508181036000830152612b2581612768565b9050919050565b60006020820190508181036000830152612b458161278b565b9050919050565b60006020820190508181036000830152612b65816127ae565b9050919050565b60006020820190508181036000830152612b85816127d1565b9050919050565b60006020820190508181036000830152612ba5816127f4565b9050919050565b60006020820190508181036000830152612bc581612817565b9050919050565b60006020820190508181036000830152612be58161283a565b9050919050565b60006020820190508181036000830152612c058161285d565b9050919050565b60006020820190508181036000830152612c2581612880565b9050919050565b60006020820190508181036000830152612c45816128a3565b9050919050565b60006020820190508181036000830152612c65816128c6565b9050919050565b60006020820190508181036000830152612c85816128e9565b9050919050565b60006020820190508181036000830152612ca58161290c565b9050919050565b60006020820190508181036000830152612cc58161292f565b9050919050565b60006020820190508181036000830152612ce581612952565b9050919050565b6000602082019050612d016000830184612975565b92915050565b6000612d11612d22565b9050612d1d8282612f74565b919050565b6000604051905090565b600067ffffffffffffffff821115612d4757612d466130ac565b5b612d50826130db565b9050602081019050919050565b600067ffffffffffffffff821115612d7857612d776130ac565b5b612d81826130db565b9050602081019050919050565b600081519050919050565b600081519050919050565b600082825260208201905092915050565b600082825260208201905092915050565b600081905092915050565b6000612ddc82612ef6565b9150612de783612ef6565b9250827fffffffffffffffffffffffffffffffffffffffffffffffffffffffffffffffff03821115612e1c57612e1b61301f565b5b828201905092915050565b6000612e3282612ef6565b9150612e3d83612ef6565b925082612e4d57612e4c61304e565b5b828204905092915050565b6000612e6382612ef6565b9150612e6e83612ef6565b925082821015612e8157612e8061301f565b5b828203905092915050565b6000612e9782612ed6565b9050919050565b60008115159050919050565b60007fffffffff0000000000000000000000000000000000000000000000000000000082169050919050565b600073ffffffffffffffffffffffffffffffffffffffff82169050919050565b6000819050919050565b82818337600083830152505050565b60005b83811015612f2d578082015181840152602081019050612f12565b83811115612f3c576000848401525b50505050565b60006002820490506001821680612f5a57607f821691505b60208210811415612f6e57612f6d61307d565b5b50919050565b612f7d826130db565b810181811067ffffffffffffffff82111715612f9c57612f9b6130ac565b5b80604052505050565b6000612fb082612ef6565b91507fffffffffffffffffffffffffffffffffffffffffffffffffffffffffffffffff821415612fe357612fe261301f565b5b600182019050919050565b6000612ff982612ef6565b915061300483612ef6565b9250826130145761301361304e565b5b828206905092915050565b7f4e487b7100000000000000000000000000000000000000000000000000000000600052601160045260246000fd5b7f4e487b7100000000000000000000000000000000000000000000000000000000600052601260045260246000fd5b7f4e487b7100000000000000000000000000000000000000000000000000000000600052602260045260246000fd5b7f4e487b7100000000000000000000000000000000000000000000000000000000600052604160045260246000fd5b6000601f19601f8301169050919050565b7f5061757361626c653a206e6f7420706175736564000000000000000000000000600082015250565b7f4552433732313a207472616e7366657220746f206e6f6e20455243373231526560008201527f63656976657220696d706c656d656e7465720000000000000000000000000000602082015250565b7f4f776e61626c653a206e6577206f776e657220697320746865207a65726f206160008201527f6464726573730000000000000000000000000000000000000000000000000000602082015250565b7f4552433732313a207472616e736665722066726f6d20696e636f72726563742060008201527f6f776e6572000000000000000000000000000000000000000000000000000000602082015250565b7f4552433732313a20746f6b656e20616c7265616479206d696e74656400000000600082015250565b7f4552433732313a207472616e7366657220746f20746865207a65726f2061646460008201527f7265737300000000000000000000000000000000000000000000000000000000602082015250565b7f4552433732313a20617070726f766520746f2063616c6c657200000000000000600082015250565b7f4552433732313a206f70657261746f7220717565727920666f72206e6f6e657860008201527f697374656e7420746f6b656e0000000000000000000000000000000000000000602082015250565b7f5061757361626c653a2070617573656400000000000000000000000000000000600082015250565b7f4552433732313a20617070726f76652063616c6c6572206973206e6f74206f7760008201527f6e6572206e6f7220617070726f76656420666f7220616c6c0000000000000000602082015250565b7f4552433732313a2062616c616e636520717565727920666f7220746865207a6560008201527f726f206164647265737300000000000000000000000000000000000000000000602082015250565b7f4552433732313a206f776e657220717565727920666f72206e6f6e657869737460008201527f656e7420746f6b656e0000000000000000000000000000000000000000000000602082015250565b7f45524337323155524953746f726167653a2055524920736574206f66206e6f6e60008201527f6578697374656e7420746f6b656e000000000000000000000000000000000000602082015250565b7f4552433732313a206d696e7420746f20746865207a65726f2061646472657373600082015250565b7f45524337323155524953746f726167653a2055524920717565727920666f722060008201527f6e6f6e6578697374656e7420746f6b656e000000000000000000000000000000602082015250565b7f4552433732313a20617070726f76656420717565727920666f72206e6f6e657860008201527f697374656e7420746f6b656e0000000000000000000000000000000000000000602082015250565b7f4f776e61626c653a2063616c6c6572206973206e6f7420746865206f776e6572600082015250565b7f4552433732314d657461646174613a2055524920717565727920666f72206e6f60008201527f6e6578697374656e7420746f6b656e0000000000000000000000000000000000602082015250565b7f4552433732313a20617070726f76616c20746f2063757272656e74206f776e6560008201527f7200000000000000000000000000000000000000000000000000000000000000602082015250565b7f4552433732313a207472616e736665722063616c6c6572206973206e6f74206f60008201527f776e6572206e6f7220617070726f766564000000000000000000000000000000602082015250565b7f4552433732314275726e61626c653a2063616c6c6572206973206e6f74206f7760008201527f6e6572206e6f7220617070726f76656400000000000000000000000000000000602082015250565b61368c81612e8c565b811461369757600080fd5b50565b6136a381612e9e565b81146136ae57600080fd5b50565b6136ba81612eaa565b81146136c557600080fd5b50565b6136d181612ef6565b81146136dc57600080fd5b5056fea26469706673582212208a5d4c3a8c40c12e360b9ee0934f247b07449bc2dda11400f98b15cc253ebddf64736f6c63430008040033",
  "linkReferences": {},
  "deployedLinkReferences": {}
}